{
  "contractName": "Governance",
  "abi": [
    {
      "anonymous": false,
      "inputs": [
        {
          "indexed": true,
          "internalType": "uint256",
          "name": "_educationId",
          "type": "uint256"
        }
      ],
      "name": "educationCreated",
      "type": "event"
    },
    {
      "anonymous": false,
      "inputs": [
        {
          "indexed": true,
          "internalType": "uint256",
          "name": "_hospitalId",
          "type": "uint256"
        }
      ],
      "name": "hospitalCreated",
      "type": "event"
    },
    {
      "anonymous": false,
      "inputs": [
        {
          "indexed": true,
          "internalType": "uint256",
          "name": "_patientId",
          "type": "uint256"
        }
      ],
      "name": "patientCreated",
      "type": "event"
    },
    {
      "anonymous": false,
      "inputs": [
        {
          "indexed": true,
          "internalType": "uint256",
          "name": "_studentId",
          "type": "uint256"
        }
      ],
      "name": "studentCreated",
      "type": "event"
    },
    {
      "inputs": [],
      "name": "educationCount",
      "outputs": [
        {
          "internalType": "uint256",
          "name": "",
          "type": "uint256"
        }
      ],
      "stateMutability": "view",
      "type": "function",
      "constant": true
    },
    {
      "inputs": [
        {
          "internalType": "uint256",
          "name": "",
          "type": "uint256"
        }
      ],
      "name": "educationList",
      "outputs": [
        {
          "internalType": "string",
          "name": "education_details",
          "type": "string"
        }
      ],
      "stateMutability": "view",
      "type": "function",
      "constant": true
    },
    {
      "inputs": [],
      "name": "hospitalCount",
      "outputs": [
        {
          "internalType": "uint256",
          "name": "",
          "type": "uint256"
        }
      ],
      "stateMutability": "view",
      "type": "function",
      "constant": true
    },
    {
      "inputs": [
        {
          "internalType": "uint256",
          "name": "",
          "type": "uint256"
        }
      ],
      "name": "hospitalList",
      "outputs": [
        {
          "internalType": "string",
          "name": "hospital_details",
          "type": "string"
        }
      ],
      "stateMutability": "view",
      "type": "function",
      "constant": true
    },
    {
      "inputs": [],
      "name": "patientCount",
      "outputs": [
        {
          "internalType": "uint256",
          "name": "",
          "type": "uint256"
        }
      ],
      "stateMutability": "view",
      "type": "function",
      "constant": true
    },
    {
      "inputs": [
        {
          "internalType": "uint256",
          "name": "",
          "type": "uint256"
        }
      ],
      "name": "patientList",
      "outputs": [
        {
          "internalType": "string",
          "name": "patient_details",
          "type": "string"
        }
      ],
      "stateMutability": "view",
      "type": "function",
      "constant": true
    },
    {
      "inputs": [],
      "name": "studentCount",
      "outputs": [
        {
          "internalType": "uint256",
          "name": "",
          "type": "uint256"
        }
      ],
      "stateMutability": "view",
      "type": "function",
      "constant": true
    },
    {
      "inputs": [
        {
          "internalType": "uint256",
          "name": "",
          "type": "uint256"
        }
      ],
      "name": "studentList",
      "outputs": [
        {
          "internalType": "string",
          "name": "student_details",
          "type": "string"
        }
      ],
      "stateMutability": "view",
      "type": "function",
      "constant": true
    },
    {
      "inputs": [
        {
          "internalType": "string",
          "name": "hd",
          "type": "string"
        }
      ],
      "name": "saveHospital",
      "outputs": [],
      "stateMutability": "nonpayable",
      "type": "function"
    },
    {
      "inputs": [],
      "name": "getHospitalCount",
      "outputs": [
        {
          "internalType": "uint256",
          "name": "",
          "type": "uint256"
        }
      ],
      "stateMutability": "view",
      "type": "function",
      "constant": true
    },
    {
      "inputs": [
        {
          "internalType": "uint256",
          "name": "i",
          "type": "uint256"
        }
      ],
      "name": "getHospital",
      "outputs": [
        {
          "internalType": "string",
          "name": "",
          "type": "string"
        }
      ],
      "stateMutability": "view",
      "type": "function",
      "constant": true
    },
    {
      "inputs": [
        {
          "internalType": "string",
          "name": "ed",
          "type": "string"
        }
      ],
      "name": "saveEducation",
      "outputs": [],
      "stateMutability": "nonpayable",
      "type": "function"
    },
    {
      "inputs": [],
      "name": "getEducationCount",
      "outputs": [
        {
          "internalType": "uint256",
          "name": "",
          "type": "uint256"
        }
      ],
      "stateMutability": "view",
      "type": "function",
      "constant": true
    },
    {
      "inputs": [
        {
          "internalType": "uint256",
          "name": "i",
          "type": "uint256"
        }
      ],
      "name": "getEducation",
      "outputs": [
        {
          "internalType": "string",
          "name": "",
          "type": "string"
        }
      ],
      "stateMutability": "view",
      "type": "function",
      "constant": true
    },
    {
      "inputs": [
        {
          "internalType": "string",
          "name": "sd",
          "type": "string"
        }
      ],
      "name": "saveStudent",
      "outputs": [],
      "stateMutability": "nonpayable",
      "type": "function"
    },
    {
      "inputs": [],
      "name": "getStudentCount",
      "outputs": [
        {
          "internalType": "uint256",
          "name": "",
          "type": "uint256"
        }
      ],
      "stateMutability": "view",
      "type": "function",
      "constant": true
    },
    {
      "inputs": [
        {
          "internalType": "uint256",
          "name": "i",
          "type": "uint256"
        }
      ],
      "name": "getStudent",
      "outputs": [
        {
          "internalType": "string",
          "name": "",
          "type": "string"
        }
      ],
      "stateMutability": "view",
      "type": "function",
      "constant": true
    },
    {
      "inputs": [
        {
          "internalType": "string",
          "name": "pd",
          "type": "string"
        }
      ],
      "name": "savePatient",
      "outputs": [],
      "stateMutability": "nonpayable",
      "type": "function"
    },
    {
      "inputs": [],
      "name": "getPatientCount",
      "outputs": [
        {
          "internalType": "uint256",
          "name": "",
          "type": "uint256"
        }
      ],
      "stateMutability": "view",
      "type": "function",
      "constant": true
    },
    {
      "inputs": [
        {
          "internalType": "uint256",
          "name": "i",
          "type": "uint256"
        }
      ],
      "name": "getPatient",
      "outputs": [
        {
          "internalType": "string",
          "name": "",
          "type": "string"
        }
      ],
      "stateMutability": "view",
      "type": "function",
      "constant": true
    }
  ],
  "bytecode": "0x60806040526000805560006002556000600455600060065534801561002357600080fd5b50610962806100336000396000f3fe608060405234801561001057600080fd5b5060043610610149576000357c010000000000000000000000000000000000000000000000000000000090048063a7470f9a116100ca578063e235feee1161008e578063e235feee1461024e578063e364800e14610261578063e581f9ee14610274578063f96e32f81461027d578063fe45a81d1461029057600080fd5b8063a7470f9a146101fa578063ac2472d21461020d578063babb1d4114610220578063c190665b14610233578063c82412b91461023b57600080fd5b80636212fa02116101115780636212fa02146101b0578063642f9163146101b85780637d3a6796146101cb5780637df221e9146101de578063a0303c41146101f157600080fd5b8063350dadb71461014e5780633903400d1461016a5780633a5bbc4b1461017357806341e0c407146101885780635e6239c114610190575b600080fd5b61015760005481565b6040519081526020015b60405180910390f35b61015760025481565b610186610181366004610777565b610298565b005b600454610157565b6101a361019e366004610828565b610314565b6040516101619190610841565b600254610157565b6101a36101c6366004610828565b6103b2565b6101a36101d9366004610828565b610470565b6101a36101ec366004610828565b6104a2565b61015760065481565b6101a3610208366004610828565b6104bd565b61018661021b366004610777565b6104ef565b6101a361022e366004610828565b61055f565b600654610157565b6101a3610249366004610828565b61057a565b61018661025c366004610777565b610595565b61018661026f366004610777565b610609565b61015760045481565b6101a361028b366004610828565b61067d565b600054610157565b60408051602080820183528382526004546000908152600582529290922081518051929391926102cb92849201906106af565b50506004546040519091507ff4224cd6c7ed3445821a4ff1790b40b497827b0297e5a5d9c550a16f86e5ca4b90600090a26004805490600061030c83610896565b919050555050565b60036020526000908152604090208054819061032f906108d8565b80601f016020809104026020016040519081016040528092919081815260200182805461035b906108d8565b80156103a85780601f1061037d576101008083540402835291602001916103a8565b820191906000526020600020905b81548152906001019060200180831161038b57829003601f168201915b5050505050905081565b60606000600560008481526020019081526020016000206040518060200160405290816000820180546103e4906108d8565b80601f0160208091040260200160405190810160405280929190818152602001828054610410906108d8565b801561045d5780601f106104325761010080835404028352916020019161045d565b820191906000526020600020905b81548152906001019060200180831161044057829003601f168201915b5050509190925250509051949350505050565b60606000600760008481526020019081526020016000206040518060200160405290816000820180546103e4906108d8565b60056020526000908152604090208054819061032f906108d8565b60606000600160008481526020019081526020016000206040518060200160405290816000820180546103e4906108d8565b60408051602080820183528382526000805481526001825292909220815180519293919261052092849201906106af565b5050600080546040519092507fc8a83bf120e7c5a91e1383235e1a75d6c6c13bb1f7e15115a787a0d7d29e1dd69190a260008054908061030c83610896565b60076020526000908152604090208054819061032f906108d8565b60016020526000908152604090208054819061032f906108d8565b60408051602080820183528382526002546000908152600382529290922081518051929391926105c892849201906106af565b50506002546040519091507f51f490f095178686159e73b43773c8c9801a43952ba6c92d43fa163faa8b69f290600090a26002805490600061030c83610896565b604080516020808201835283825260065460009081526007825292909220815180519293919261063c92849201906106af565b50506006546040519091507febf127f355b0c02a0eb75523ae607f41c8b66cc12be77a30f4261075bea0370690600090a26006805490600061030c83610896565b60606000600360008481526020019081526020016000206040518060200160405290816000820180546103e4906108d8565b8280546106bb906108d8565b90600052602060002090601f0160209004810192826106dd5760008555610723565b82601f106106f657805160ff1916838001178555610723565b82800160010185558215610723579182015b82811115610723578251825591602001919060010190610708565b5061072f929150610733565b5090565b5b8082111561072f5760008155600101610734565b7f4e487b7100000000000000000000000000000000000000000000000000000000600052604160045260246000fd5b60006020828403121561078957600080fd5b813567ffffffffffffffff808211156107a157600080fd5b818401915084601f8301126107b557600080fd5b8135818111156107c7576107c7610748565b604051601f8201601f19908116603f011681019083821181831017156107ef576107ef610748565b8160405282815287602084870101111561080857600080fd5b826020860160208301376000928101602001929092525095945050505050565b60006020828403121561083a57600080fd5b5035919050565b600060208083528351808285015260005b8181101561086e57858101830151858201604001528201610852565b81811115610880576000604083870101525b50601f01601f1916929092016040019392505050565b60006000198214156108d1577f4e487b7100000000000000000000000000000000000000000000000000000000600052601160045260246000fd5b5060010190565b6002810460018216806108ec57607f821691505b60208210811415610926577f4e487b7100000000000000000000000000000000000000000000000000000000600052602260045260246000fd5b5091905056fea2646970667358221220a1191281ec85525cfd0c44cfd95868ad06183f87a13831ac2040eeb3b7515cf964736f6c634300080b0033",
  "immutableReferences": {},
  "source": "pragma solidity >= 0.8.11 <= 0.8.11;\r\npragma experimental ABIEncoderV2;\r\n//evault solidity code\r\ncontract Governance {\r\n\r\n    uint public hospitalCount = 0; \r\n    mapping(uint => hospital) public hospitalList; \r\n     struct hospital\r\n     {\r\n       string hospital_details;\r\n     }\r\n \r\n   // events \r\n   event hospitalCreated(uint indexed _hospitalId);\r\n   \r\n   //function  to save hospital details to Blockchain\r\n   function saveHospital(string memory hd) public {\r\n      hospitalList[hospitalCount] = hospital(hd);\r\n      emit hospitalCreated(hospitalCount);\r\n      hospitalCount++;\r\n    }\r\n\r\n     //get hospital count\r\n    function getHospitalCount()  public view returns (uint) {\r\n          return  hospitalCount;\r\n    }\r\n\r\n     function getHospital(uint i) public view returns (string memory) {\r\n        hospital memory hl = hospitalList[i];\r\n\treturn hl.hospital_details;\r\n    }\r\n\r\n    uint public educationCount = 0; \r\n    mapping(uint => education) public educationList; \r\n     struct education\r\n     {\r\n       string education_details;       \r\n     }\r\n \r\n   // events \r\n   event educationCreated(uint indexed _educationId);\r\n   \r\n   //function  to save education details to Blockchain\r\n   function saveEducation(string memory ed) public {\r\n      educationList[educationCount] = education(ed);\r\n      emit educationCreated(educationCount);\r\n      educationCount++;\r\n    }\r\n\r\n    //get education count\r\n    function getEducationCount()  public view returns (uint) {\r\n          return  educationCount;\r\n    }\r\n\r\n    function getEducation(uint i) public view returns (string memory) {\r\n        education memory el = educationList[i];\r\n\treturn el.education_details;\r\n    }\r\n\r\n    uint public studentCount = 0; \r\n    mapping(uint => student) public studentList; \r\n     struct student\r\n     {\r\n       string student_details;       \r\n     }\r\n \r\n   // events \r\n   event studentCreated(uint indexed _studentId);\r\n   \r\n   //function  to save student details to Blockchain\r\n   function saveStudent(string memory sd) public {\r\n      studentList[studentCount] = student(sd);\r\n      emit studentCreated(studentCount);\r\n     studentCount++;\r\n    }\r\n\r\n     //get student count\r\n    function getStudentCount()  public view returns (uint) {\r\n          return studentCount;\r\n    }\r\n\r\n\r\n    function getStudent(uint i) public view returns (string memory) {\r\n        student memory sl = studentList[i];\r\n\treturn sl.student_details;\r\n    }\r\n\r\n    uint public patientCount = 0; \r\n    mapping(uint => patient) public patientList; \r\n     struct patient\r\n     {\r\n       string patient_details;       \r\n     }\r\n \r\n   // events \r\n   event patientCreated(uint indexed _patientId);\r\n   \r\n   //function  to save patient details to Blockchain\r\n   function savePatient(string memory pd) public {\r\n      patientList[patientCount] = patient(pd);\r\n      emit patientCreated(patientCount);\r\n     patientCount++;\r\n    }\r\n\r\n     //get patient count\r\n    function getPatientCount()  public view returns (uint) {\r\n          return patientCount;\r\n    }\r\n\r\n\r\n    function getPatient(uint i) public view returns (string memory) {\r\n        patient memory pl = patientList[i];\r\n\treturn pl.patient_details;\r\n    }\r\n\r\n}",
  "sourcePath": "C:\\Users\\Admin\\Desktop\\Blockchain\\hello-eth\\node_modules\\.bin\\contracts\\Governance.sol",
  "compiler": {
    "name": "solc",
    "version": "0.8.11+commit.d7f03943.Emscripten.clang"
  },
  "schemaVersion": "3.4.4",
  "updatedAt": "2024-04-03T01:13:21.333Z",
  "networkType": "ethereum",
  "devdoc": {
    "kind": "dev",
    "methods": {},
    "version": 1
  },
  "userdoc": {
    "kind": "user",
    "methods": {},
    "version": 1
  }
}